{
  "contractName": "TicTacToe",
  "abi": [
    {
      "constant": true,
      "inputs": [],
      "name": "player2Escrow",
      "outputs": [
        {
          "name": "",
          "type": "uint256"
        }
      ],
      "payable": false,
      "stateMutability": "view",
      "type": "function"
    },
    {
      "constant": true,
      "inputs": [],
      "name": "player1Escrow",
      "outputs": [
        {
          "name": "",
          "type": "uint256"
        }
      ],
      "payable": false,
      "stateMutability": "view",
      "type": "function"
    },
    {
      "constant": true,
      "inputs": [],
      "name": "player2",
      "outputs": [
        {
          "name": "",
          "type": "address"
        }
      ],
      "payable": false,
      "stateMutability": "view",
      "type": "function"
    },
    {
      "constant": true,
      "inputs": [],
      "name": "player1",
      "outputs": [
        {
          "name": "",
          "type": "address"
        }
      ],
      "payable": false,
      "stateMutability": "view",
      "type": "function"
    },
    {
      "constant": true,
      "inputs": [],
      "name": "winner",
      "outputs": [
        {
          "name": "",
          "type": "address"
        }
      ],
      "payable": false,
      "stateMutability": "view",
      "type": "function"
    },
    {
      "inputs": [],
      "payable": true,
      "stateMutability": "payable",
      "type": "constructor"
    },
    {
      "constant": false,
      "inputs": [],
      "name": "joinGame",
      "outputs": [],
      "payable": true,
      "stateMutability": "payable",
      "type": "function"
    },
    {
      "constant": false,
      "inputs": [
        {
          "name": "xpos",
          "type": "uint8"
        },
        {
          "name": "ypos",
          "type": "uint8"
        }
      ],
      "name": "performMove",
      "outputs": [],
      "payable": false,
      "stateMutability": "nonpayable",
      "type": "function"
    },
    {
      "constant": false,
      "inputs": [],
      "name": "findWinner",
      "outputs": [
        {
          "name": "",
          "type": "address"
        }
      ],
      "payable": true,
      "stateMutability": "payable",
      "type": "function"
    },
    {
      "constant": true,
      "inputs": [],
      "name": "isGameOver",
      "outputs": [
        {
          "name": "",
          "type": "bool"
        }
      ],
      "payable": false,
      "stateMutability": "view",
      "type": "function"
    },
    {
      "constant": true,
      "inputs": [],
      "name": "currentPlayerAddress",
      "outputs": [
        {
          "name": "",
          "type": "address"
        }
      ],
      "payable": false,
      "stateMutability": "view",
      "type": "function"
    },
    {
      "constant": true,
      "inputs": [],
      "name": "currentPlayerShape",
      "outputs": [
        {
          "name": "",
          "type": "uint8"
        }
      ],
      "payable": false,
      "stateMutability": "view",
      "type": "function"
    },
    {
      "constant": false,
      "inputs": [],
      "name": "stateToString",
      "outputs": [
        {
          "name": "",
          "type": "string"
        }
      ],
      "payable": false,
      "stateMutability": "nonpayable",
      "type": "function"
    },
    {
      "constant": false,
      "inputs": [
        {
          "name": "ypos",
          "type": "uint256"
        }
      ],
      "name": "rowToString",
      "outputs": [
        {
          "name": "",
          "type": "string"
        }
      ],
      "payable": true,
      "stateMutability": "payable",
      "type": "function"
    },
    {
      "constant": true,
      "inputs": [
        {
          "name": "xpos",
          "type": "uint256"
        },
        {
          "name": "ypos",
          "type": "uint256"
        }
      ],
      "name": "squareToString",
      "outputs": [
        {
          "name": "",
          "type": "string"
        }
      ],
      "payable": false,
      "stateMutability": "view",
      "type": "function"
    }
  ],
  "bytecode": "0x60806040526000600555336000806101000a81548173ffffffffffffffffffffffffffffffffffffffff021916908373ffffffffffffffffffffffffffffffffffffffff1602179055506064600381905550611e1c806100606000396000f3fe6080604052600436106100dd5760003560e01c8063d22c3fb31161007f578063dfbf53ae11610059578063dfbf53ae1461045e578063e6c05b1c146104b5578063f9d5ecf21461050c578063ff2ec8f914610545576100dd565b8063d22c3fb31461033f578063d30895e4146103fd578063d4f77b1c14610454576100dd565b8063451e408a116100bb578063451e408a146101e357806359a5f12d1461020e5780638e71decb14610265578063a25dc6d7146102af576100dd565b80630e04a7d8146100e2578063329f86a81461011157806340a58d1e1461013c575b600080fd5b3480156100ee57600080fd5b506100f7610590565b604051808215151515815260200191505060405180910390f35b34801561011d57600080fd5b506101266105c5565b6040518082815260200191505060405180910390f35b6101686004803603602081101561015257600080fd5b81019080803590602001909291905050506105cb565b6040518080602001828103825283818151815260200191508051906020019080838360005b838110156101a857808201518184015260208101905061018d565b50505050905090810190601f1680156101d55780820380516001836020036101000a031916815260200191505b509250505060405180910390f35b3480156101ef57600080fd5b506101f8610753565b6040518082815260200191505060405180910390f35b34801561021a57600080fd5b50610223610759565b604051808273ffffffffffffffffffffffffffffffffffffffff1673ffffffffffffffffffffffffffffffffffffffff16815260200191505060405180910390f35b61026d61077f565b604051808273ffffffffffffffffffffffffffffffffffffffff1673ffffffffffffffffffffffffffffffffffffffff16815260200191505060405180910390f35b3480156102bb57600080fd5b506102c46108b9565b6040518080602001828103825283818151815260200191508051906020019080838360005b838110156103045780820151818401526020810190506102e9565b50505050905090810190601f1680156103315780820380516001836020036101000a031916815260200191505b509250505060405180910390f35b34801561034b57600080fd5b506103826004803603604081101561036257600080fd5b810190808035906020019092919080359060200190929190505050610a8c565b6040518080602001828103825283818151815260200191508051906020019080838360005b838110156103c25780820151818401526020810190506103a7565b50505050905090810190601f1680156103ef5780820380516001836020036101000a031916815260200191505b509250505060405180910390f35b34801561040957600080fd5b50610412610c45565b604051808273ffffffffffffffffffffffffffffffffffffffff1673ffffffffffffffffffffffffffffffffffffffff16815260200191505060405180910390f35b61045c610c6a565b005b34801561046a57600080fd5b50610473610d77565b604051808273ffffffffffffffffffffffffffffffffffffffff1673ffffffffffffffffffffffffffffffffffffffff16815260200191505060405180910390f35b3480156104c157600080fd5b506104ca610d9d565b604051808273ffffffffffffffffffffffffffffffffffffffff1673ffffffffffffffffffffffffffffffffffffffff16815260200191505060405180910390f35b34801561051857600080fd5b50610521610e05565b6040518082600281111561053157fe5b60ff16815260200191505060405180910390f35b34801561055157600080fd5b5061058e6004803603604081101561056857600080fd5b81019080803560ff169060200190929190803560ff169060200190929190505050610e2c565b005b600080600281111561059e57fe5b6105a6611164565b60028111156105b157fe5b1415806105c057506008600554115b905090565b60045481565b60606105d8600083610a8c565b6105e3600184610a8c565b6105ee600285610a8c565b6040516020018084805190602001908083835b602083106106245780518252602082019150602081019050602083039250610601565b6001836020036101000a038019825116818451168082178552505050505050905001807f207c20000000000000000000000000000000000000000000000000000000000081525060030183805190602001908083835b6020831061069d578051825260208201915060208101905060208303925061067a565b6001836020036101000a038019825116818451168082178552505050505050905001807f207c20000000000000000000000000000000000000000000000000000000000081525060030182805190602001908083835b6020831061071657805182526020820191506020810190506020830392506106f3565b6001836020036101000a03801982511681845116808217855250505050505090500193505050506040516020818303038152906040529050919050565b60035481565b600160009054906101000a900473ffffffffffffffffffffffffffffffffffffffff1681565b60008061078a611164565b90506001600281111561079957fe5b8160028111156107a557fe5b141561080f57600160009054906101000a900473ffffffffffffffffffffffffffffffffffffffff16600260006101000a81548173ffffffffffffffffffffffffffffffffffffffff021916908373ffffffffffffffffffffffffffffffffffffffff1602179055505b60028081111561081b57fe5b81600281111561082757fe5b1415610890576000809054906101000a900473ffffffffffffffffffffffffffffffffffffffff16600260006101000a81548173ffffffffffffffffffffffffffffffffffffffff021916908373ffffffffffffffffffffffffffffffffffffffff1602179055505b600260009054906101000a900473ffffffffffffffffffffffffffffffffffffffff1691505090565b60606108c560006105cb565b6108cf60016105cb565b6108d960026105cb565b60405160200180807f0a0000000000000000000000000000000000000000000000000000000000000081525060010184805190602001908083835b602083106109375780518252602082019150602081019050602083039250610914565b6001836020036101000a038019825116818451168082178552505050505050905001807f3c62723e0000000000000000000000000000000000000000000000000000000081525060040183805190602001908083835b602083106109b0578051825260208201915060208101905060208303925061098d565b6001836020036101000a038019825116818451168082178552505050505050905001807f3c62723e0000000000000000000000000000000000000000000000000000000081525060040182805190602001908083835b60208310610a295780518252602082019150602081019050602083039250610a06565b6001836020036101000a038019825116818451168082178552505050505050905001807f3c62723e000000000000000000000000000000000000000000000000000000008152506004019350505050604051602081830303815290604052905090565b6060610a988383611dbd565b610aa157600080fd5b60006002811115610aae57fe5b60068460038110610abb57fe5b018360038110610ac757fe5b602091828204019190069054906101000a900460ff166002811115610ae857fe5b1415610b2b576040518060400160405280600181526020017f20000000000000000000000000000000000000000000000000000000000000008152509050610c3f565b60016002811115610b3857fe5b60068460038110610b4557fe5b018360038110610b5157fe5b602091828204019190069054906101000a900460ff166002811115610b7257fe5b1415610bb5576040518060400160405280600181526020017f58000000000000000000000000000000000000000000000000000000000000008152509050610c3f565b600280811115610bc157fe5b60068460038110610bce57fe5b018360038110610bda57fe5b602091828204019190069054906101000a900460ff166002811115610bfb57fe5b1415610c3e576040518060400160405280600181526020017f4f000000000000000000000000000000000000000000000000000000000000008152509050610c3f565b5b92915050565b6000809054906101000a900473ffffffffffffffffffffffffffffffffffffffff1681565b6000809054906101000a900473ffffffffffffffffffffffffffffffffffffffff1673ffffffffffffffffffffffffffffffffffffffff163373ffffffffffffffffffffffffffffffffffffffff161415610d2d576040517f08c379a00000000000000000000000000000000000000000000000000000000081526004018080602001828103825260188152602001807f626f746820706c617965722063616e742062652073616d65000000000000000081525060200191505060405180910390fd5b33600160006101000a81548173ffffffffffffffffffffffffffffffffffffffff021916908373ffffffffffffffffffffffffffffffffffffffff16021790555034600481905550565b600260009054906101000a900473ffffffffffffffffffffffffffffffffffffffff1681565b600080600260055481610dac57fe5b061415610ddd57600160009054906101000a900473ffffffffffffffffffffffffffffffffffffffff169050610e02565b6000809054906101000a900473ffffffffffffffffffffffffffffffffffffffff1690505b90565b600080600260055481610e1457fe5b061415610e245760019050610e29565b600290505b90565b6000809054906101000a900473ffffffffffffffffffffffffffffffffffffffff1673ffffffffffffffffffffffffffffffffffffffff163373ffffffffffffffffffffffffffffffffffffffff161480610ed45750600160009054906101000a900473ffffffffffffffffffffffffffffffffffffffff1673ffffffffffffffffffffffffffffffffffffffff163373ffffffffffffffffffffffffffffffffffffffff16145b610edd57600080fd5b610ee5610590565b15610f58576040517f08c379a000000000000000000000000000000000000000000000000000000000815260040180806020018281038252600c8152602001807f67616d65206973206f766572000000000000000000000000000000000000000081525060200191505060405180910390fd5b610f688260ff168260ff16611dbd565b610fda576040517f08c379a000000000000000000000000000000000000000000000000000000000815260040180806020018281038252600d8152602001807f696e2d76616c6964206d6f76650000000000000000000000000000000000000081525060200191505060405180910390fd5b60006002811115610fe757fe5b60068360ff1660038110610ff757fe5b018260ff166003811061100657fe5b602091828204019190069054906101000a900460ff16600281111561102757fe5b1461109a576040517f08c379a00000000000000000000000000000000000000000000000000000000081526004018080602001828103825260108152602001807f616c7265616479206f636375706965640000000000000000000000000000000081525060200191505060405180910390fd5b6110a2610e05565b60068360ff16600381106110b257fe5b018260ff16600381106110c157fe5b602091828204019190066101000a81548160ff021916908360028111156110e457fe5b02179055506001600560008282540192505081905550611102610590565b15611160576000600381905550600060048190555061111f61077f565b600260006101000a81548173ffffffffffffffffffffffffffffffffffffffff021916908373ffffffffffffffffffffffffffffffffffffffff1602179055505b5050565b600080600281111561117257fe5b600660006003811061118057fe5b0160006003811061118d57fe5b602091828204019190069054906101000a900460ff1660028111156111ae57fe5b14158015611231575060066000600381106111c557fe5b016001600381106111d257fe5b602091828204019190069054906101000a900460ff1660028111156111f357fe5b600660006003811061120157fe5b0160006003811061120e57fe5b602091828204019190069054906101000a900460ff16600281111561122f57fe5b145b80156112b25750600660006003811061124657fe5b0160026003811061125357fe5b602091828204019190069054906101000a900460ff16600281111561127457fe5b600660006003811061128257fe5b0160006003811061128f57fe5b602091828204019190069054906101000a900460ff1660028111156112b057fe5b145b156112ef5760066000600381106112c557fe5b016000600381106112d257fe5b602091828204019190069054906101000a900460ff169050611dba565b600060028111156112fc57fe5b600660016003811061130a57fe5b0160006003811061131757fe5b602091828204019190069054906101000a900460ff16600281111561133857fe5b141580156113bb5750600660016003811061134f57fe5b0160016003811061135c57fe5b602091828204019190069054906101000a900460ff16600281111561137d57fe5b600660016003811061138b57fe5b0160006003811061139857fe5b602091828204019190069054906101000a900460ff1660028111156113b957fe5b145b801561143c575060066001600381106113d057fe5b016002600381106113dd57fe5b602091828204019190069054906101000a900460ff1660028111156113fe57fe5b600660016003811061140c57fe5b0160006003811061141957fe5b602091828204019190069054906101000a900460ff16600281111561143a57fe5b145b1561147957600660016003811061144f57fe5b0160006003811061145c57fe5b602091828204019190069054906101000a900460ff169050611dba565b6000600281111561148657fe5b600660026003811061149457fe5b016000600381106114a157fe5b602091828204019190069054906101000a900460ff1660028111156114c257fe5b14158015611545575060066002600381106114d957fe5b016001600381106114e657fe5b602091828204019190069054906101000a900460ff16600281111561150757fe5b600660026003811061151557fe5b0160006003811061152257fe5b602091828204019190069054906101000a900460ff16600281111561154357fe5b145b80156115c65750600660026003811061155a57fe5b0160026003811061156757fe5b602091828204019190069054906101000a900460ff16600281111561158857fe5b600660026003811061159657fe5b016000600381106115a357fe5b602091828204019190069054906101000a900460ff1660028111156115c457fe5b145b156116035760066002600381106115d957fe5b016000600381106115e657fe5b602091828204019190069054906101000a900460ff169050611dba565b6000600281111561161057fe5b600660006003811061161e57fe5b0160006003811061162b57fe5b602091828204019190069054906101000a900460ff16600281111561164c57fe5b141580156116cf5750600660016003811061166357fe5b0160006003811061167057fe5b602091828204019190069054906101000a900460ff16600281111561169157fe5b600660006003811061169f57fe5b016000600381106116ac57fe5b602091828204019190069054906101000a900460ff1660028111156116cd57fe5b145b8015611750575060066002600381106116e457fe5b016000600381106116f157fe5b602091828204019190069054906101000a900460ff16600281111561171257fe5b600660006003811061172057fe5b0160006003811061172d57fe5b602091828204019190069054906101000a900460ff16600281111561174e57fe5b145b1561178d57600660006003811061176357fe5b0160006003811061177057fe5b602091828204019190069054906101000a900460ff169050611dba565b6000600281111561179a57fe5b60066000600381106117a857fe5b016001600381106117b557fe5b602091828204019190069054906101000a900460ff1660028111156117d657fe5b14158015611859575060066001600381106117ed57fe5b016001600381106117fa57fe5b602091828204019190069054906101000a900460ff16600281111561181b57fe5b600660006003811061182957fe5b0160016003811061183657fe5b602091828204019190069054906101000a900460ff16600281111561185757fe5b145b80156118da5750600660026003811061186e57fe5b0160016003811061187b57fe5b602091828204019190069054906101000a900460ff16600281111561189c57fe5b60066000600381106118aa57fe5b016001600381106118b757fe5b602091828204019190069054906101000a900460ff1660028111156118d857fe5b145b156119175760066000600381106118ed57fe5b016001600381106118fa57fe5b602091828204019190069054906101000a900460ff169050611dba565b6000600281111561192457fe5b600660006003811061193257fe5b0160026003811061193f57fe5b602091828204019190069054906101000a900460ff16600281111561196057fe5b141580156119e35750600660016003811061197757fe5b0160026003811061198457fe5b602091828204019190069054906101000a900460ff1660028111156119a557fe5b60066000600381106119b357fe5b016002600381106119c057fe5b602091828204019190069054906101000a900460ff1660028111156119e157fe5b145b8015611a64575060066002600381106119f857fe5b01600260038110611a0557fe5b602091828204019190069054906101000a900460ff166002811115611a2657fe5b6006600060038110611a3457fe5b01600260038110611a4157fe5b602091828204019190069054906101000a900460ff166002811115611a6257fe5b145b15611aa1576006600060038110611a7757fe5b01600260038110611a8457fe5b602091828204019190069054906101000a900460ff169050611dba565b60006002811115611aae57fe5b6006600160038110611abc57fe5b01600160038110611ac957fe5b602091828204019190069054906101000a900460ff166002811115611aea57fe5b14158015611b6d57506006600060038110611b0157fe5b01600060038110611b0e57fe5b602091828204019190069054906101000a900460ff166002811115611b2f57fe5b6006600160038110611b3d57fe5b01600160038110611b4a57fe5b602091828204019190069054906101000a900460ff166002811115611b6b57fe5b145b8015611bee57506006600260038110611b8257fe5b01600260038110611b8f57fe5b602091828204019190069054906101000a900460ff166002811115611bb057fe5b6006600160038110611bbe57fe5b01600160038110611bcb57fe5b602091828204019190069054906101000a900460ff166002811115611bec57fe5b145b15611c2b576006600160038110611c0157fe5b01600160038110611c0e57fe5b602091828204019190069054906101000a900460ff169050611dba565b60006002811115611c3857fe5b6006600160038110611c4657fe5b01600160038110611c5357fe5b602091828204019190069054906101000a900460ff166002811115611c7457fe5b14158015611cf757506006600060038110611c8b57fe5b01600260038110611c9857fe5b602091828204019190069054906101000a900460ff166002811115611cb957fe5b6006600160038110611cc757fe5b01600160038110611cd457fe5b602091828204019190069054906101000a900460ff166002811115611cf557fe5b145b8015611d7857506006600260038110611d0c57fe5b01600060038110611d1957fe5b602091828204019190069054906101000a900460ff166002811115611d3a57fe5b6006600160038110611d4857fe5b01600160038110611d5557fe5b602091828204019190069054906101000a900460ff166002811115611d7657fe5b145b15611db5576006600160038110611d8b57fe5b01600160038110611d9857fe5b602091828204019190069054906101000a900460ff169050611dba565b600090505b90565b6000808310158015611dcf5750600383105b8015611ddc575060008210155b8015611de85750600382105b90509291505056fea165627a7a723058201717109a8e1212e13124fe9d28a15b7bc7faa5cf3f2cc71bbc782ee91ddc2b340029",
  "source": "pragma solidity^0.5.8;\r\n\r\ncontract TicTacToe {\r\n\r\n    address public player1;\r\n    address public player2;\r\n    address public winner;\r\n    \r\n    uint public player1Escrow;\r\n    uint public player2Escrow;\r\n    \r\n    uint current_move  = 0;\r\n    enum SquareState {Empty, X, O}\r\n    SquareState[3][3] board;\r\n    \r\n    constructor() public payable {\r\n        //require(msg.value > 0, 'value should be more than 0');\r\n        player1 = msg.sender;\r\n        player1Escrow = 100; // need to update this with msg.value\r\n        \r\n    }\r\n    \r\n    function joinGame() public payable {\r\n        //require(msg.value > 0, 'value should be more than 0');\r\n        require(msg.sender != player1, 'both player cant be same');\r\n        player2 = msg.sender;\r\n\r\n        player2Escrow = msg.value;\r\n        \r\n    }\r\n    \r\n    function performMove(uint8 xpos, uint8 ypos) public {\r\n        require(msg.sender == player1 || msg.sender == player2);\r\n        require(!isGameOver(), 'game is over');\r\n        /*require(msg.sender == currentPlayerAddress(), 'not your turn....');*/\r\n        require(positionIsInBound(xpos, ypos), 'in-valid move');\r\n        require(board[xpos][ypos] == SquareState.Empty, 'already occupied');\r\n        \r\n        board[xpos][ypos] = currentPlayerShape();\r\n        current_move += 1;\r\n\r\n        if(isGameOver()) {\r\n            /*address payable tmp = findWinner();\r\n            address(tmp).transfer(player2Escrow + player1Escrow);*/\r\n            /*address(msg.sender).transfer(player1Escrow + player2Escrow);*/\r\n            player1Escrow = 0;\r\n            player2Escrow = 0;\r\n            winner = findWinner();\r\n        }\r\n       \r\n    }\r\n    \r\n    function findWinner() public payable returns (address) {\r\n        SquareState shape = winningPlayerShape();\r\n        if(shape == SquareState.X) {\r\n            winner = player2;\r\n        } if(shape == SquareState.O) {\r\n            winner = player1;\r\n        }\r\n        \r\n        return winner;\r\n    }\r\n    \r\n    //returns true is the game has been finished\r\n    function isGameOver() public view returns (bool) {\r\n        return (winningPlayerShape() != SquareState.Empty || current_move > 8 );\r\n    }\r\n    \r\n    function currentPlayerAddress() public view returns (address) {\r\n        if(current_move % 2 == 0) {\r\n            return player2;\r\n        }\r\n        return player1;\r\n    }\r\n    \r\n    \r\n    function currentPlayerShape() public view returns (SquareState) {\r\n        if(current_move % 2 == 0) {\r\n            return SquareState.X;\r\n        }\r\n        return SquareState.O;\r\n    }\r\n    \r\n    function winningPlayerShape() private view returns (SquareState) {\r\n        //Columns\r\n        if(board[0][0] != SquareState.Empty && board[0][0] == board[0][1] && board[0][0] == board[0][2]) {\r\n            return board[0][0];\r\n        }\r\n        if(board[1][0] != SquareState.Empty && board[1][0] == board[1][1] && board[1][0] == board[1][2]) {\r\n            return board[1][0];\r\n        }\r\n        if(board[2][0] != SquareState.Empty && board[2][0] == board[2][1] && board[2][0] == board[2][2]) {\r\n            return board[2][0];\r\n        }\r\n        \r\n        //rows\r\n        if(board[0][0] != SquareState.Empty && board[0][0] == board[1][0] && board[0][0] == board[2][0]) {\r\n            return board[0][0];\r\n        }\r\n        if(board[0][1] != SquareState.Empty && board[0][1] == board[1][1] && board[0][1] == board[2][1]) {\r\n            return board[0][1];\r\n        }\r\n        if(board[0][2] != SquareState.Empty && board[0][2] == board[1][2] && board[0][2] == board[2][2]) {\r\n            return board[0][2];\r\n        }\r\n        \r\n        //diagonal\r\n        if(board[1][1] != SquareState.Empty && board[1][1] == board[0][0] && board[1][1] == board[2][2]) {\r\n            return board[1][1];\r\n        }\r\n        if(board[1][1] != SquareState.Empty && board[1][1] == board[0][2] && board[1][1] == board[2][0]) {\r\n            return board[1][1];\r\n        }\r\n        \r\n        return SquareState.Empty;\r\n    }\r\n    \r\n    \r\n    function stateToString() public returns (string memory) {\r\n        return string(abi.encodePacked(\"\\n\",\r\n            rowToString(0),\"<br>\",\r\n            rowToString(1),\"<br>\",\r\n            rowToString(2),\"<br>\"\r\n        ));\r\n    }\r\n    \r\n    //String representation of board row\r\n    function rowToString(uint ypos) public payable returns (string memory) {\r\n        return string(abi.encodePacked(squareToString(0, ypos), \" | \", squareToString(1, ypos), \" | \", squareToString(2, ypos)))  ;\r\n    }\r\n    \r\n    function squareToString(uint xpos, uint ypos) public view returns (string memory) {\r\n        require(positionIsInBound(xpos, ypos));\r\n        \r\n        if(board[xpos][ypos] == SquareState.Empty) {\r\n            return \" \";\r\n        }\r\n        if(board[xpos][ypos] == SquareState.X) {\r\n            return \"X\";\r\n        } \r\n        if(board[xpos][ypos] == SquareState.O) {\r\n            return \"O\";\r\n        }\r\n    }\r\n    \r\n    function positionIsInBound(uint xpos, uint ypos) private pure returns (bool) {\r\n        return (xpos >= 0 && xpos < 3 && ypos >= 0 && ypos < 3);\r\n    }\r\n    \r\n}",
  "sourcePath": "C:/cygwin64/election/contracts/TicTacToe.sol",
  "compiler": {
    "name": "solc",
    "version": "0.5.8+commit.23d335f2.Emscripten.clang"
  },
  "schemaVersion": "3.0.11",
  "updatedAt": "2019-09-05T10:05:47.888Z",
  "devdoc": {
    "methods": {}
  },
  "userdoc": {
    "methods": {}
  }
}